:100000000C9429040C9497190C9470190C945104B5
:100010000C9451040C9451040C94161A0C94510431
:100020000C9451040C9451040C9451040C945104FC
:100030000C9451040C9451040C9451040C945104EC
:100040000C9426190C9451040C94E4190C94BE19C8
:100050000C9451040C9451040C9451040C945104CC
:100060000C9407180C945104524620706F776572F7
:10007000203D20004453313842323020656E6162A9
:100080006C6564203D200070756C7365207065722E
:10009000696F64203D200070756C73657320656E18
:1000A00061626C6564203D2000204D487A002C2060
:1000B00042616E6420002C204E6F64652000477200
:1000C0006F75702000005EBCE2613FDD83C29C7EE4
:1000D00020A3FD1F41009D23BE46DB65F88C11AFB8
:1000E00032CA57E9744C6F616465642045455052CB
:1000F0004F4D20636F6E6669670053656E736F7254
:10010000206D6179206E6F742062652072656C6964
:1001100061626C6500200030002C207769746820D3
:100120006164647265737365732E2E2E00445331BF
:100130003842323020666F756E64203D2000656D58
:100140006F6E54482072657374617274696E6720B3
:10015000776974682064656661756C7420636F6E7E
:100160006669672E00526573657474696E672E2E1A
:100170002E000A00202868696464656E292E00201C
:100180006279746573002C20446174612073697A0C
:10019000653A2000205369676E61747572653A2074
:1001A000004E6F206461746120626C6F636B206627
:1001B0006F756E64202D20454550524F4D20617063
:1001C000706561727320746F20626520666F726D56
:1001D000617474656420746F204F454D20537461C1
:1001E0006E646172642062757420756E75736564E7
:1001F0002E000A002062797465732C206E6F7420C3
:10020000666F726D617474656420746F204F454D24
:10021000205374616E646172640053697A653A2098
:1002200000446F6E652E204E657720636F6E6669A1
:100230006720736176656420746F20454550524F86
:100240004D002000436F6E74696E75696E672E2EC7
:100250002E00456D6F6E54485F56322056004E6F2B
:1002600064652000206D730050756C7365733A20CF
:100270000047726F75702000204D487A00456E74FB
:100280006572696E672053657474696E6773206D5B
:100290006F64652E2E2E0000000000240027002A27
:1002A0000000000000250028002B000000000800CE
:1002B0000201000003040700000000000000000A23
:1002C000417661696C61626C6520636F6D6D616E12
:1002D00064733A0A20206C20202020202020202037
:1002E0002D206C697374207468652073657474695B
:1002F0006E67730A202072202020202020202020DA
:100300002D20726573746F726520736B65746368FA
:100310002064656661756C74730A20207320202048
:100320002020202020202D207361766520736574A5
:1003300074696E677320746F20454550524F4D0AA3
:100340002020762020202020202020202D207368AF
:100350006F77206669726D7761726520766572735A
:10036000696F6E0A20207820202020202020202065
:100370002D20657869742C206C6F636B20616E642E
:1003800020636F6E74696E75650A20203F202020FF
:100390002020202020202D2073686F77207468692A
:1003A00073207465787420616761696E0A0A202081
:1003B000773C783E2020202020202D207475726EFE
:1003C0002052464D20576972656C657373202F204B
:1003D00053657269616C206461746120626F746836
:1003E000206F66663A2078203D20302C2077697295
:1003F000656C657373206F6E6C793A20783D312C93
:100400002073657269616C206F6E6C793A20783D5B
:1004100032206F7220626F74683A2078203D20335A
:100420000A2020623C6E3E2020202020202D2073B8
:10043000657420722E662E2062616E64206E203DEF
:1004400020612073696E676C65206E756D657261E1
:100450006C3A2034203D203433334D487A2C2038F8
:10046000203D203836384D487A2C2039203D20391F
:1004700031354D487A20286D617920726571756932
:100480007265206861726477617265206368616E6D
:100490006765290A2020703C6E6E3E2020202020B7
:1004A0002D207365742074686520722E662E20706E
:1004B0006F7765722E206E6E202D20616E20696E22
:1004C00074656765722030202D203331207265708D
:1004D000726573656E74696E67202D3138206442D1
:1004E0006D20746F202B31332064426D2E204465C3
:1004F0006661756C743A20323520282B37206442AF
:100500006D290A2020673C6E6E6E3E202020202D33
:1005100020736574204E6574776F726B2047726F1D
:10052000757020206E6E6E202D20616E20696E74B5
:100530006567657220284F454D2064656661756C5E
:1005400074203D20323130290A20206E3C6E6E3EF0
:1005500020202020202D20736574206E6F6465207C
:100560004944206E3D20616E20696E746567657236
:1005700020287374616E64617264206E6F646520FC
:100580006964732061726520312E2E3630290A0A83
:1005900020206D3C783E203C79793E202D206D65F1
:1005A0007465722070756C736520636F756E746905
:1005B0006E673A0A202020202020202020202020A2
:1005C00020202078203D203020666F72204F464644
:1005D0002C2078203D203120666F72204F4E2C2039
:1005E0003C79793E203D20616E20696E74656765B7
:1005F0007220666F72207468652070756C73652058
:100600006D696E696D756D20706572696F642069C2
:100610006E206D732E202879206973206E6F7420F0
:100620006E65656465642C206F722069676E6F72F9
:100630006564207768656E2078203D2030290A2087
:10064000207430203C793E202020202D20747572AB
:100650006E2065787465726E616C2074656D70656E
:10066000726174757265206D6561737572656D6513
:100670006E74206F6E206F72206F66663A0A2020BB
:10068000202020202020202020202D2079203D20E7
:100690003020666F72204F46462C2079203D203155
:1006A00020666F72204F4E0A2020743C783E203C1A
:1006B00079793E203C79793E203C79793E203C791D
:1006C000793E203C79793E203C79793E203C79790D
:1006D0003E203C79793E0A20202020202020202026
:1006E0002020202D206368616E676520616E206583
:1006F000787465726E616C2074656D70657261747A
:100700007572652073656E736F7227732061646400
:1007100072657373206F7220706F736974696F6E86
:100720003A0A2020202020202020202020202D20B8
:1007300078203D20612073696E676C65206E756D51
:100740006572616C3A2074686520706F73697469B2
:100750006F6E206F66207468652073656E736F72AC
:1007600020696E20746865206C6973742028312DAF
:100770006261736564290A20202020202020202027
:100780002020202D207979203D203820686578614F
:10079000646563696D616C2062797465732072654C
:1007A00070726573656E74696E6720746865207316
:1007B000656E736F72277320616464726573730A68
:1007C00020202020202020202020202020202065E4
:1007D0002E672E2020323820383120343320333118
:1007E0002030372030302030302044390A2020207B
:1007F0002020202020202020202020204E2E422E8D
:100800002053656E736F72732043414E4E4F5420D8
:1008100062652061646465642E0A000A00000000BD
:100820000023002600290004040404040404040234
:10083000020202020203030303030301020408107D
:10084000204080010204081020010204081020004A
:10085000271A11241FBECFEFD8E0DEBFCDBF25E0A1
:10086000AAEAB2E001C01D92A230B207E1F712E09D
:10087000A0E0B1E0EEE4F2E502C005900D92AA3AE4
:10088000B107D9F714E0C9E2D4E004C02197FE0112
:100890000E940028C832D107C9F70E94781B0C9427
:1008A00025290C94000020915203260F3327331F73
:1008B00021323105ECF42091BF03FC0190E080E08F
:1008C000243069F082E00895A09152032191AC0197
:1008D000405D5C4FA40FB52FB11D2C930196861778
:1008E00098F380915203680F6093520380E008955B
:1008F00081E00895089508950895E0917803809126
:100900007703E81730F4F0E0E758FC4F808190E07F
:1009100008958FEF9FEF089590917803809177036A
:100920002FEF3FEF981748F4E92FF0E0E758FC4F1E
:10093000208130E09F5F90937803C90108958091F2
:10094000770390917803891B990B0895CF92DF92DA
:10095000EF92FF920F931F93CF93DF937C01CB0114
:100960008A012091C503222389F0EB016B01C40E9B
:10097000D51ECC15DD0569F06991D701ED91FC918B
:100980000190F081E02DC7010995F3CF642F0E94FB
:100990005304C801DF91CF911F910F91FF90EF9009
:1009A000DF90CF900895CF93DF931F92CDB7DEB73E
:1009B00069832091C5032223F9F02091E8032032B6
:1009C00058F021E030E0FC013383228390E080E0A6
:1009D0000F90DF91CF9108958091C603E82FF0E04A
:1009E000E953FC4F998190838F5F8093C603809376
:1009F000E80381E090E0ECCF61E0CE0101960E9437
:100A00005304F7CF833081F028F4813099F082309D
:100A1000A9F008958730A9F08830C9F08430B1F486
:100A2000809180008F7D03C0809180008F778093BC
:100A30008000089584B58F7784BD089584B58F7D37
:100A4000FBCF8091B0008F778093B00008958091A4
:100A5000B0008F7DF9CFCF93DF93282F30E0F901DD
:100A6000E555FD4F8491F901E55CF74FD491F9010B
:100A7000E95DF74FC491CC23A1F081110E940205DA
:100A8000EC2FF0E0EE0FFF1FE35EF74FA591B4915E
:100A9000EC91ED2381E090E009F480E0DF91CF91CB
:100AA000089580E090E0FACF1F93CF93DF93282F33
:100AB00030E0F901E555FD4F8491F901E55CF74F10
:100AC000D491F901E95DF74FC491CC23A9F0162F19
:100AD00081110E940205EC2FF0E0EE0FFF1FEF5591
:100AE000FD4FA591B4918FB7F894EC91111108C006
:100AF000D095DE23DC938FBFDF91CF911F910895B6
:100B0000DE2BF8CF1092BF0381E08093BE031092DA
:100B1000990361E082E10E94540561E083E10E9453
:100B20005405E9EBF0E080818E7F808380818D7FAA
:100B3000808388E48093B80085E48093BC000895A6
:100B4000CF93DF9391E090932F038823B9F0C09166
:100B5000B800D091BA008091BC008A7B8093BC0021
:100B600060E082E10E94540560E083E10E94540548
:100B70000E948205D093BA00C093B800DF91CF9154
:100B80000895CF93DF9390E0FC01E55CF74F24914B
:100B9000895D974FFC0184918823C9F090E0880F0C
:100BA000991FFC01E956FD4FA591B491FC01EF5549
:100BB000FD4FC591D49161110DC09FB7F8948C91F0
:100BC000209582238C938881282328839FBFDF91DF
:100BD000CF910895623051F49FB7F8943C91822FE1
:100BE000809583238C93E8812E2BEFCF8FB7F894D9
:100BF000EC912E2B2C938FBFEACF3FB7F8948091C6
:100C00002B0390912C03A0912D03B0912E0326B5B8
:100C1000A89B05C02F3F19F00196A11DB11D3FBF34
:100C2000BA2FA92F982F8827BC01CD01620F711D03
:100C3000811D911D42E0660F771F881F991F4A95FD
:100C4000D1F708958F929F92AF92BF92CF92DF9289
:100C5000EF92FF920F931F93CF93DF93D091E8030E
:100C6000D13208F0D7C0182FC091E7030E94FD05CC
:100C70006B017C018091BF0381116BC082E0809386
:100C8000BF031093BE038FEF8093BD031092BC038C
:100C9000D093BB03A7ECB3E0EBE9F3E080E0D8131B
:100CA00091C010929A0380919A03CC0FC82BC093E5
:100CB0009A0380919903813009F088C010929903BA
:100CC0000E94FD056B017C0180919A038093BB001B
:100CD0008091C1039091C203A091C303B091C4035A
:100CE000892B8A2B8B2BA1F00E94FD050091C1035B
:100CF0001091C2032091C3033091C4036C197D0984
:100D00008E099F09061717072807390708F442C0FC
:100D10008091BC0083FDD8CF85EC8093BC000E94FD
:100D2000FD056B017C018091BF03823009F450C046
:100D30008091BD038F3F09F46FC08091BD03803265
:100D400009F46CC08091BD03803309F469C084E06C
:100D500026C08091C1039091C203A091C303B091BA
:100D6000C403892B8A2B8B2B09F484CF0E94FD05A9
:100D70008090C1039090C203A090C303B090C403BD
:100D80006C197D098E099F0986169706A806B90673
:100D900008F070CF8091C0030E94A00585E01092FA
:100DA000C6031092E8031092C503DF91CF911F9103
:100DB0000F91FF90EF90DF90CF90BF90AF909F90FA
:100DC0008F9008959D9191938F5F69CF85EEA5CF08
:100DD0008091C1039091C203A091C303B091C40359
:100DE000892B8A2B8B2B09F49ECF0E94FD05009145
:100DF000C1031091C2032091C3033091C4036C1945
:100E00007D098E099F09061717072807390708F07B
:100E10008ACFC0CF81E0C3CF80E0C1CF82E0BFCF17
:100E200083E0BDCF0F931F93CF93DF93EC018B0132
:100E300081E08093C50380E48093E7031092C603AA
:100E40001092E803688189EE93E00E94D304013098
:100E5000110529F0698189EE93E00E94D30481E0B5
:100E6000DF91CF911F910F910C9422068F929F9248
:100E7000AF92BF92CF92DF92EF92FF926B017C0113
:100E80000E94FD054B015C01C114D104E104F10491
:100E9000B9F00E94FD05681979098A099B09683E25
:100EA00073408105910580F321E0C21AD108E10861
:100EB000F10888EE880E83E0981EA11CB11CE4CFD7
:100EC000FF90EF90DF90CF90BF90AF909F908F906A
:100ED00008952FB7F89460912703709128038091AB
:100EE000290390912A032FBF0895089581E08093EC
:100EF000FE02E0919F04F091A0040484F585E02DAA
:100F0000309709F009940895AF92BF92CF92DF9283
:100F1000EF92FF920F931F93CF93DF936C017B01AE
:100F20008B01040F151FEB015E01AE18BF08C0173F
:100F3000D10759F06991D601ED91FC910190F081B2
:100F4000E02DC6010995892B79F7C501DF91CF9175
:100F50001F910F91FF90EF90DF90CF90BF90AF90D7
:100F60000895FC01538D448D252F30E0842F90E0AF
:100F7000821B930B541710F0CF9608950197089594
:100F8000FC01918D828D981761F0A28DAE0FBF2F5D
:100F9000B11D5D968C91928D9F5F9F73928F90E0B3
:100FA00008958FEF9FEF08958F929F92AF92BF9217
:100FB000EF92FF920F931F93CF93DF937B018C01EE
:100FC000D0E0C0E00E9469076093FD037093FE03C8
:100FD0008093FF039093000485EF93E00E94C00785
:100FE00097FF27C00E9469078090FD039090FE0341
:100FF000A090FF03B0900004681979098A099B0941
:101000008090F9039090FA03A090FB03B090FC034A
:10101000681579058A059B05F8F2CE01DF91CF911D
:101020001F910F91FF90EF90BF90AF909F908F9086
:101030000895F80181938F012196EC16FD0611F6B3
:10104000ECCFFC01918D828D981731F0828DE80FE5
:10105000F11D858D90E008958FEF9FEF08950F9318
:101060001F930E9469076093FD037093FE038093B2
:10107000FF039093000485EF93E00E94210897FFFF
:101080001DC00E9469070091FD031091FE0320918D
:10109000FF0330910004601B710B820B930B0091D6
:1010A000F9031091FA032091FB033091FC036017C0
:1010B000710782079307F8F28FEF9FEF1F910F914F
:1010C0000895CF92DF92EF92FF92CF930E942F0864
:1010D000FC0197FD4EC08D32910521F0C0970A9713
:1010E00008F040C0C12CD12C7601C0E0E130F10500
:1010F000D1F0ED32F105D9F1CF01C0970A9798F4FC
:10110000AAE0B0E0A70196010E949C276F01FF0FA3
:10111000EE08FF08C60ED71EE81EF91E80E3C81AA7
:10112000D108E108F10885EF93E00E94C0070E9412
:101130002F08FC01C0970A97C8F2E130F105B1F21F
:10114000CC2341F0F094E094D094C094C11CD11C05
:10115000E11CF11CC701B601CF91FF90EF90DF9029
:10116000CF90089585EF93E00E94C007AFCFC1E014
:10117000DACFC12CD12C7601EDCFFC01918D228DDF
:10118000892F90E0805C9F4F821B91098F73992774
:10119000089585EF93E00E94BD0821E0892B09F4B2
:1011A00020E0822F089580E090E0892B29F00E94B2
:1011B000C90881110C9400000895FC01A48DA80FAA
:1011C000B92FB11DA35ABF4F2C91848D90E0019689
:1011D0008F739927848FA689B7892C93A089B189A9
:1011E0008C91837080648C93938D848D981306C04A
:1011F0000288F389E02D80818F7D80830895EF92AE
:10120000FF920F931F93CF93DF93EC0181E0888FC0
:101210009B8D8C8D98131AC0E889F989808185FF90
:1012200015C09FB7F894EE89FF896083E889F98932
:1012300080818370806480839FBF81E090E0DF9134
:10124000CF911F910F91FF90EF900895F62E0B8D87
:1012500010E00F5F1F4F0F731127E02E8C8D8E1142
:101260000CC00FB607FCFACFE889F989808185FFA9
:10127000F5CFCE010E94DD08F1CFEB8DEC0FFD2FF5
:10128000F11DE35AFF4FF0829FB7F8940B8FEA8964
:10129000FB8980818062CFCF0F931F93CF93DF9321
:1012A0008C01D0E0C0E0F801EC0FFD1F64916623D3
:1012B00041F085EF93E00E94FF08892B11F0219601
:1012C000F2CFCE01DF91CF911F910F910895682F3A
:1012D00085EF93E00C94FF081F93CF93DF93CFEB40
:1012E000D2E0FE011491112351F01A3019F48DE06F
:1012F0000E946709812F0E9467092196F2CFDF9132
:10130000CF911F910895CF93DF93EC01888D8823AF
:10131000B9F0AA89BB89E889F9898C9185FD03C058
:10132000808186FD0DC00FB607FCF7CF8C9185FF3D
:10133000F2CF808185FFEDCFCE010E94DD08E9CF9D
:10134000DF91CF910895DC0180E0615090F09D9194
:101350009827E92FEF70F0E0EB53FF4F2491E92F2E
:10136000E295EF70F0E0EB52FF4FE491822F8E2771
:10137000ECCF0895DC012C911196ED91FC91F8943D
:101380008181822B81839281322F309593239283A6
:1013900087E090E00197F1F781818323818383E2E5
:1013A00090E00197F1F790817894EFECF0E03197BD
:1013B000F1F7922381E009F480E00895FC01908127
:1013C0000180F281E02D292F209560FF14C0F89450
:1013D0008281822382838181892B8183A3E2B0E091
:1013E0001197F1F78281982B9283789487ED90E0A2
:1013F0000197F1F70895F894828182238283818195
:10140000892B8183AFEFB0E01197F1F78281982BA0
:10141000928378948FE090E0EBCFDF92EF92FF928F
:101420000F931F93CF93DF93EC01D62EE42E08E0A9
:1014300010E0FF24F39461E08D2D8F2109F460E02A
:10144000CE010E94DE09FF0C01501109A1F7E11045
:1014500010C0F894E981FA8191818881809589236F
:101460008183E981FA8192818881809589238283B1
:101470007894DF91CF911F910F91FF90EF90DF90C3
:101480000895EF92FF920F931F93CF93DF938C01F8
:101490007B0140E065E50E940D0AE70188E0E80E67
:1014A000F11C699140E0C8010E940D0ACE15DF05CC
:1014B000C1F7DF91CF911F910F91FF90EF900895A9
:1014C000FC0190810180F281E02DF8948181292F27
:1014D00020958223818378943DE743E050E03150AA
:1014E00029F1DA011197F1F780818923C1F3F8948A
:1014F0008281822382838181892B81837894ABE7E7
:10150000B7E01197F1F7F894818182238183A3E1F9
:10151000B1E01197F1F78081982381E009F080E034
:101520007894E3E6F6E03197F1F7089580E00895C6
:101530006F927F928F929F92AF92BF92CF92DF92E3
:10154000EF92FF920F931F93CF93DF938C01EB01E8
:101550008091AA049091AB040E94600A882309F448
:101560003FC0B8018091AA049091AB040E94410A47
:1015700040E06EEB8091AA049091AB040E940D0AAA
:101580007E016E0189E0C80ED11C8E01A090AA04D4
:10159000B090AB0488E0882E912C712C6624639463
:1015A000C5010E94BA0981117628660CE1E08E1A05
:1015B0009108B1F7F80171928F01CE16DF0631F76D
:1015C0008091AA049091AB040E94600A813041F49A
:1015D000F70181917F01811105C0E017F107C1F783
:1015E00090E008C068E0CE010E94A30991E0288540
:1015F0002813F6CF892FDF91CF911F910F91FF9084
:10160000EF90DF90CF90BF90AF909F908F907F90A2
:101610006F9008958F929F92AF92BF92CF92DF9278
:10162000EF92FF920F931F93CF93DF93CDB7DEB767
:1016300029970FB6F894DEBF0FBECDBF8C01BE0157
:101640006F5F7F4F0E94980A811105C060E070E0D3
:101650008EEF92EC4AC02A8160E070E0CB0127FF58
:1016600004C060E070E088EF9FEFF8014081C9801E
:101670004B3309F04DC03D8137FF4AC0C0FCE6CF77
:10168000D12CF12CE12CE3E0CC0CDD1CEE1CFF1C7A
:10169000EA95D1F746015701F0EE8F22F7E09F223D
:1016A000AA24BB24C22ED12CF12CE12CFBE0CC0CC3
:1016B000DD1CEE1CFF1CFA95D1F7C828D928EA28B2
:1016C000FB286C297D298E299F29613854EE7507E6
:1016D0005FEF850795070CF4B9CF0E94692620E0DB
:1016E00030E040E05CE30E94C82629960FB6F894EB
:1016F000DEBF0FBECDBFDF91CF911F910F91FF9045
:10170000EF90DF90CF90BF90AF909F908F90089513
:10171000022F10E0102F0027110F110F110F28E0DA
:10172000C29E600111240C291D29012E000C220BE0
:10173000330B602B712B822B932B403131F6488574
:10174000442319F28B019C0183E0000F111F221F1B
:10175000331F8A95D1F7007827703327005211097B
:1017600021093109642F70E08F81AB01481B5109B9
:10177000CA019695982F8827979587950E94B62736
:10178000072E000C880B990B600F711F821F931F8F
:101790009CCF0F931F93CF93DF93CDB7DEB72997DD
:1017A0000FB6F894DEBF0FBECDBFFC012081203103
:1017B00039F18C01BE016F5F7F4F0E94980A882328
:1017C00071F09D81F80180818B3311F497FD18C071
:1017D0008AE09F3329F078F489E09F3109F080E0B6
:1017E00029960FB6F894DEBF0FBECDBFDF91CF9123
:1017F0001F910F9108958BE09F3591F39F3779F7F3
:101800008CE0EECF8F929F92AF92BF92CF92DF92F9
:10181000EF92FF92CF93DF9300D000D01F92CDB70D
:10182000DEB78091AA049091AB040E94600A40E068
:101830006CEC8091AA049091AB040E940D0A409137
:10184000A10464E48091AA049091AB040E940D0A63
:101850000E9469076B017C018091A50481111EC063
:1018600081E08983CA82DB82EC82FD8229813A8110
:101870004B815C816D8170E080E090E00F900F9073
:101880000F900F900F90DF91CF91FF90EF90DF902E
:10189000CF90BF90AF909F908F9008958091A604B5
:1018A0008823C1F08091A104811114C08091AA0401
:1018B0009091AB040E94BA09813091F20E946907AD
:1018C0006C197D098E099F096E3E72408105910554
:1018D00068F3C6CFE091A404E9508EEE92E0E330C5
:1018E00038F4F0E0EE0FFF1FE85FFE4F808191813A
:1018F0004C01B12CA12C8091A204882329F060E036
:101900008091A3040E945405C501B4010E943607CA
:101910008091A204882309F4A3CF61E08091A304FD
:101920000E9454059DCF83FF04C098E2892787FD5C
:1019300016C09091600098709064892B909160001F
:101940009093FF0294B7977F94BFF89490916000B2
:1019500098619093600080936000789408958091DE
:10196000FF02F0CFCF92DF92EF92FF921F93CF93BF
:10197000DF936C01EC0138E0E32EF12CC031D1058E
:1019800008F43FC0CE0110E08032910530F01F5FB7
:10199000193019F096958795F7CF10920003812F93
:1019A0000E94930C90917A0080917A008F778093B7
:1019B0007A0083B7817F846083BFF89483B78160A6
:1019C00083BF85B7806685BF85B78F79806485BF03
:1019D0007894889583B78E7F83BF90937A008FEF3A
:1019E0000E94930CC70102C0880F991F1A95E2F755
:1019F000C81BD90B20910003222311F1C81BD90B5E
:101A0000BDCF81E0409127035091280360912903C5
:101A100070912A03CC1ADD0A4C0D5D1D611D711DEC
:101A200040932703509328036093290370932A035C
:101A3000DF91CF911F91FF90EF90DF90CF900895AD
:101A400080E0E0CF90E080E00895CF93DF93EC0159
:101A500061E08A810E9454058E858CBD8F858DBD85
:101A6000DF91CF910895FC018CB586878DB587876E
:101A7000908981899CBD8DBD60E082810C94540564
:101A80004F925F926F927F929F92AF92BF92CF924E
:101A9000DF92EF92FF920F931F93CF93DF9300D0CB
:101AA00000D000D0CDB7DEB79E838D836B015A0185
:101AB000122FF02E912C2E2D30E050E040E02983A3
:101AC0003A834B835C83AD81BE81ED91FC9111978C
:101AD0000280F381E02D01E0212FA501B601CD01A7
:101AE00009950E9469072B013C010E94690764194E
:101AF00075098609970929813A814B815C816217B2
:101B000073078407950780F5AD81BE81ED91FC9147
:101B100011970680F781E02DCD010995882329F3DF
:101B20002091F9023091FA02C216D30619F0C114BD
:101B3000D104D9F69091F7029923B9F226960FB6FF
:101B4000F894DEBF0FBECDBFDF91CF911F910F91F3
:101B5000FF90EF90DF90CF90BF90AF909F907F90DD
:101B60006F905F904F9008959394F91408F0ABCF65
:101B700080E0E4CFCF93C62FDC01ED91FC9111976B
:101B80000484F585E02D19962C912223A9F06E3F4F
:101B900054F065317CF46C3044F462E06C0F0995CC
:101BA0008C2FCF910895CEEFF8CF64E0C031B4F31D
:101BB00063E0F4CFC4E1FCCF6E300CF0CDE0CE3E5C
:101BC0000CF4CEEE62E1EACFFC0180850895089521
:101BD0008EBD00000DB407FEFDCF8EB508950F93A6
:101BE0001F93CF93DF93EC01062F142FE881F98127
:101BF0000488F589E02D0995802F80680E94E80D02
:101C0000812F0E94E80DE881F9810688F789E02D8F
:101C1000CE01DF91CF911F910F9109941F93CF9324
:101C2000DF93EC01162F89858823A9F088858431FC
:101C300090F04DE5611101C045E56AE5CE010E94D5
:101C4000EF0D40E711114CE76CE5CE01DF91CF912C
:101C50001F910C94EF0D10E0EFCFCF93DF93EC01C9
:101C600069874AE161114FE063E1CE010E94EF0D07
:101C7000E881F9810484F585E02D6885CE01DF9146
:101C8000CF9109940F931F93CF93DF938C01C62FAD
:101C9000DC0119968C911997882331F1683130F065
:101CA00087E118968C93C7E1C85F1CC0F801608774
:101CB0006031A8F4C05FD0E4D801ED91FC91068CAE
:101CC000F78DE02D61E0C80109954C2F4D2B61E1A6
:101CD000C801DF91CF911F910F910C94EF0D6431EA
:101CE00018F7C65FD0E6E8CF603208F0CFE1F80120
:101CF000C087D0E8EACF1F93CF93DF93EC01162F74
:101D0000E881F9810488F589E02D0995812F0E94E9
:101D1000E80D80E00E94E80D182FE881F98106881F
:101D2000F789E02DCE010995812FDF91CF911F9189
:101D30000895CF93DF93EC011092F8021092FA020B
:101D40001092F9021092FC021092FB021092FD0216
:101D50001092F7021092F6021092F50268E20E94C9
:101D60007B0E82FF0AC06DE3CE010E947B0E482FDE
:101D700044606DE3CE010E94EF0D40E465E2CE01C8
:101D80000E94EF0DE881F9810288F389E02D63E07C
:101D9000CE01DF91CF9109944F925F926F927F9223
:101DA0008F929F92AF92BF92CF92DF92EF920F935A
:101DB0001F93CF93DF93EC014B01142FC090F902D6
:101DC000D090FA02A090F502B090F6026DE30E9466
:101DD0007B0E482F44606DE3CE010E94EF0D0E9400
:101DE00069072B013C01E881F9810190F081E02D28
:101DF000CE010995811113C00E9469076419750904
:101E000086099709683E73408105910540F4E88191
:101E1000F9810680F781E02DCE010995E4CFD092BB
:101E2000FA02C092F902E881F981028CF38DE02D6B
:101E3000EE24E39400E0212FA401B601CE01099520
:101E4000B092F602A092F502DF91CF911F910F910F
:101E5000EF90DF90CF90BF90AF909F908F907F904A
:101E60006F905F904F9008954F925F926F927F9224
:101E7000AF92BF92CF92DF92EF920F931F93CF93C7
:101E8000DF93EC016B015A01122F6DE30E947B0E70
:101E9000482F44606DE3CE010E94EF0D0E94690758
:101EA0002B013C01E881F9810190F081E02DCE0108
:101EB0000995811113C00E94690764197509860983
:101EC0009709683E73408105910540F4E881F981E6
:101ED0000680F781E02DCE010995E4CFE881F981F4
:101EE000028CF38DE02DE12C212FA501B601CE014E
:101EF0000995DF91CF911F910F91EF90DF90CF90D7
:101F0000BF90AF907F906F905F904F9008951F9318
:101F1000CF93DF9320919E04261761F0162FEC01DA
:101F2000623009F445C050F4662309F453C06130AF
:101F300009F449C0DF91CF911F910895633021F1D9
:101F40006430C1F761E00E947B0E837E482F4C60B5
:101F500061E0CE010E94EF0D8985882341F0E88180
:101F6000F981068CF78DE02D61E0CE010995809115
:101F70009E04811106C067E2CE010E947B0E87FF9E
:101F8000F6CF10939E04D6CF61E00E947B0E837E35
:101F9000482F406161E0CE010E94EF0D89858823C2
:101FA00031F3E881F981068CF78DE02D60E0DDCF1B
:101FB00061E00E947B0E837E482F486061E0CE0185
:101FC0000E94EF0DD4CF61E00E947B0E837E482FEC
:101FD0004460F4CF61E00E947B0E482F437EEECF39
:101FE0000F931F93CF93DF93EC0161E086EC94E0B5
:101FF0000E94870F209749F18881882331F186EC70
:1020000094E00E94330D8EEB0E94E80D8E01005F7C
:102010001F4F89910E94E80D0C171D07D1F786EC20
:1020200094E00E94250DC1E06DE386EC94E00E94EF
:102030007B0E8E7F482F4C2B6DE386EC94E0DF9176
:10204000CF911F910F910C94EF0DC0E0EDCFAF92A7
:10205000BF92CF92DF92EF92FF920F931F93CF9395
:10206000DF93EC016B01B42EA52EF22E102FE88128
:10207000F9810288F389E02D61E0099567E2CE01DC
:102080000E947B0E87FFFACF0F2D0E3308F00DE371
:10209000E1103DC01123E9F110E48FEFC816D1041F
:1020A00049F040F0C60126E0969587952A95E1F71C
:1020B0008C70182B8D819E818F3F910521F018F037
:1020C000892F8370182BE881F9810488F589E02D28
:1020D000CE01099580E80E94E80D83E0800F0E9400
:1020E000E80D8C2D0E94E80D8D810E94E80D812F56
:1020F0000E94E80D1B2DEB2CFA2C8E2D811B8017D6
:1021000050F4F70181917F010E94E80DF6CF10E8AD
:10211000C4CF10E0C2CFE881F9810688F789E02DAD
:10212000CE010995E881F9810288F389E02D64E008
:10213000CE01099568E2CE010E947B0E83FFFACFA3
:10214000E881F9810288F389E02D61E0CE01DF9119
:10215000CF911F910F91FF90EF90DF90CF90BF90A4
:10216000AF90099481E08093250380911D039091A5
:102170001E03A0911F03B09120030196A11DB11D64
:1021800080931D0390931E03A0931F03B09320031D
:1021900008951092190310921A0310921B031092C3
:1021A0001C0310921D0310921E0310921F03109225
:1021B000200380ED92E0A0E0B0E0809321039093B3
:1021C0002203A0932303B09324031092250382EBF0
:1021D00090E19093070180930601E9E6F0E08081A9
:1021E0008C608083E99A0895BF92CF92DF92EF923C
:1021F000FF920F931F93CF93DF932AE7E22EF12CE8
:10220000F701B0800BE710E0F801C080CCE7D0E028
:10221000D8800E94B20CF701B082F801C082D88247
:10222000DF91CF911F910F91FF90EF90DF90CF90B2
:10223000BF900895EF92FF920F931F93CF93DF9378
:102240007C018C01C3E0D0E0CE010E948627F8011A
:1022500081938F012196C730D105B1F7C701DF9176
:10226000CF911F910F91FF90EF9008950F931F93BF
:10227000CF93DF9300D000D0CDB7DEB78C0190E0D4
:1022800080E00E9486278F34D1F481E090E00E94A4
:1022900086278534A1F482E090E00E9486278D3461
:1022A00071F481E00115110559F0CE0101960E94EB
:1022B0001A1181E02B813C812017310709F080E061
:1022C0000F900F900F900F90DF91CF911F910F9172
:1022D0000895FC0101900020E9F73197AF01481BF8
:1022E000590BBC0185EF93E00C94840786E591E0DF
:1022F0000C946911CF93DF930E944C09EC010E946A
:1023000076118C0F9D1FDF91CF910895CF93DF93AE
:10231000D0E0C0E0009719F00E946911EC010E9422
:1023200076118C0F9D1FDF91CF9108958F929F9210
:10233000AF92BF920F931F93CF93DF93CDB7DEB7CA
:10234000A1970FB6F894DEBF0FBECDBF19A24230E1
:1023500008F44AE08E010F5D1F4F842E912CB12CA2
:10236000A12CA50194010E94CA27E62FB901CA0138
:10237000EA30F4F4E05DD801EE938D01232B242B99
:10238000252B79F790E080E0109719F0CD010E949D
:102390006911A1960FB6F894DEBF0FBECDBFDF91D5
:1023A000CF911F910F91BF90AF909F908F90089504
:1023B000E95CE1CF0C946911CF92DF92EF92FF922A
:1023C000CF93DF936C01990FEE08FF08F7FE17C05B
:1023D0008DE20E946709EC0166277727CB016C1913
:1023E0007D098E099F094AE00E9496118C0F9D1F5E
:1023F000DF91CF91FF90EF90DF90CF9008954AE06A
:10240000C701B601DF91CF91FF90EF90DF90CF90A1
:102410000C949611CF93DF930E94DC11EC010E9483
:1024200076118C0F9D1FDF91CF910895CF92DF928F
:10243000EF92FF920F931F93CF93DF938C017B0159
:10244000D0E0C0E0CE15DF056CF56801CC0EDD1ED6
:10245000C6010E948627803118F480E30E94670934
:102460002196C6010E948627682F70E090E080E0E8
:1024700040E10E9496118AE392E00E94DA11CE01B7
:1024800087709927892B21F48AE392E00E94DA1160
:10249000CE018F709927892BA9F68BE198E00E94D5
:1024A0004C09D0CFDF91CF911F910F91FF90EF900A
:1024B000DF90CF9008954F925F926F927F928F92AC
:1024C0009F92AF92BF92EF92FF920F931F93CF9381
:1024D000DF937C018B010E94FD054B015C01809123
:1024E000BF03811165C0C02F81E08093BF0380933B
:1024F000BE039FEF9093BD031092BC03900F909387
:10250000BB0380939A0380919A03806880939A0317
:1025100080919903813009F091C0109299030E9433
:10252000FD054B015C0180919A038093BB00809173
:10253000C1039091C203A091C303B091C403892B3E
:102540008A2B8B2BA1F00E94FD054090C103509077
:10255000C2036090C3037090C403681979098A09A3
:102560009B09461657066806790608F442C0809112
:10257000BC0083FDD8CF85EC8093BC000E94FD0594
:102580004B015C018091BF03813009F459C08091F7
:10259000BC038C1710F4C091BC03ABE9B3E0E9E7CE
:1025A000F3E080E08C1751F19D9191938F5FFACF0A
:1025B0008091C1039091C203A091C303B091C40361
:1025C000892B8A2B8B2B09F48ACF0E94FD05409022
:1025D000C1035090C2036090C3037090C403681994
:1025E00079098A099B09461657066806790608F094
:1025F00076CF8091C0030E94A005C0E010927803BE
:10260000C0937703E7010E0D1F1D89EE93E00E9432
:102610008C048993C017D107C1F781E090E0DF9166
:10262000CF911F910F91FF90EF90BF90AF909F902F
:102630008F907F906F905F904F90089585EE9CCF24
:102640008091C1039091C203A091C303B091C403D0
:10265000892B8A2B8B2B09F495CF0E94FD05409086
:10266000C1035090C2036090C3037090C403681903
:1026700079098A099B09461657066806790608F003
:1026800081CFB7CFFF920F931F93CF93DF93CDB737
:10269000DEB728970FB6F894DEBF0FBECDBF85EE2C
:1026A000888761E070E0CE0108960E94120762E020
:1026B00070E0CE0101960E945B1229813A81322797
:1026C00023273227A4EDB0E30E94A7278C010855E9
:1026D000124080EE8F8361E070E0CE0107960E9489
:1026E000120762E070E0CE0101960E945B12298120
:1026F0003A81322723273227A4EAB4E40E94A7278D
:10270000BC016D547241F62E7A836983072E000C4A
:10271000880B990B0E94692626E636E646EE5FE3B3
:102720000E94C82620E030E048E455E40E940728D3
:102730000E94E5287C836B831E830D832F2D3A81B5
:10274000462F5C81602F7E8180E090E028960FB656
:10275000F894DEBF0FBECDBFDF91CF911F910F91D7
:10276000FF900895BF92CF92DF92EF92FF920F9366
:102770001F93CF93DF93EC01B62EC72E8D85811169
:1027800005C0CE010E94600A81110EC01B861D8605
:102790001C8680E0DF91CF911F910F91FF90EF9009
:1027A000DF90CF90BF90089540E060EFCE010E948F
:1027B0000D0A01E0E12CD12C11E0CE010E94BA09F2
:1027C000F82ECE010E94BA0991E0F91218C08130AA
:1027D00099F51134D8F2DB86D11002C081E08D87E3
:1027E0008B81882399F22396EB2DFC2DCF0108963F
:1027F00029912193E817F907D9F781E0CBCFEE2D86
:10280000F0E0F8120FC08B851817A0F4DE01AE0FB0
:10281000BF1F13968C91802379F4F12C193008F4A2
:102820001C87D12EEC0FFD1F8381902F909589235B
:1028300083830AC08113F1CFFE01EE0DF11D838168
:10284000802B8383FF24F3946F2DCE010E94DE0939
:102850001F5F000F11F4E39401E087E08E1508F08C
:10286000ACCFB7CFEF92FF920F931F93CF93DF932D
:10287000CDB7DEB729970FB6F894DEBF0FBECDBF38
:102880008C01FC018081FF24F394803109F475C030
:10289000BE016F5F7F4FC8010E94980AF82E8823FF
:1028A00009F46BC08D81F80190819B3311F487FD91
:1028B00064C08F3509F461C08FE58D838091AA04CF
:1028C0009091AB040E94600AB8018091AA04909193
:1028D000AB040E94410A40E06EE48091AA0490910A
:1028E000AB040E940D0A40E06B818091AA04909194
:1028F000AB040E940D0A40E06C818091AA04909183
:10290000AB040E940D0AF8018081803141F040E063
:102910006D818091AA049091AB040E940D0AE09011
:10292000A7048091AA049091AB04EE2009F47FC023
:102930000E94600A882309F1B8018091AA0490914D
:10294000AB040E94410A4091A10468E48091AA046A
:102950009091AB040E940D0A8091A10481114DC099
:1029600064E170E080E090E00E9436078091AA0464
:102970009091AB040E94600AFE2C8BE08093A4042B
:102980008091A804823008F455C0E091AA04F09127
:10299000AB0413861586148612861186108617825C
:1029A000168215821482138210E08091A8041817F1
:1029B00008F040C08091A4048C30E1F1BE016F5F4B
:1029C0007F4F8091AA049091AB040E94B213882398
:1029D00091F067E0CE0101960E94A30998858913C2
:1029E0000AC0CE0101960E94C90B9091A4049817C9
:1029F00010F48093A4041F5FD8CF8091A204882391
:102A000029F060E08091A3040E94540564E170E025
:102A100080E090E00E9436078091A204882309F4A8
:102A2000A5CF61E08091A3040E9454059FCF0E942E
:102A3000600AA3CF8F2D29960FB6F894DEBF0FBE84
:102A4000CDBFDF91CF911F910F91FF90EF9008952F
:102A50004F925F926F927F928F929F92AF92BF92AE
:102A6000CF92DF92EF92FF920F931F93CF936B0160
:102A70007C01742EAC019B010E942029882399F0CF
:102A800089E591E0CF911F910F91FF90EF90DF903A
:102A9000CF90BF90AF909F908F907F906F905F90FE
:102AA0004F900C94691146015701E894B7F82FEF45
:102AB0003FEF4FE75FE7C501B4010E942029811174
:102AC0000DC02FEF3FEF4FE75FE7C501B4010E9454
:102AD000622618161CF48DE591E0D4CF2FEF3FEF5E
:102AE0004FE75FE4C701B6010E941B2918161CF4CA
:102AF00081E691E0C7CF2FEF3FEF4FE75FECC701D3
:102B0000B6010E94622687FDF3CF20E030E0A901E4
:102B1000C701B6010E94622610E000E087FF08C0EE
:102B20008DE20E9467098C01F7FAF094F7F8F094AF
:102B3000C0E060E070E080E09FE37C1641F020E0C0
:102B400030E040E251E40E947328CF5FF6CFA70146
:102B500096010E9407282B013C010E94EC284B01A2
:102B60005C014AE00E9496117C01E00EF11ECC232C
:102B7000B1F1C501B4010E9467269B01AC01C301FC
:102B8000B2010E9406284B015C018EE20E94670997
:102B9000E80EF91EC15018F120E030E040E251E4A7
:102BA000C501B4010E94C8262B013C010E94EC28FB
:102BB0004B01B12CA12C4AE0C501B4010E94961131
:102BC000E80EF91EC501B4010E9467269B01AC0105
:102BD000C301B2010E9406284B015C01DBCFC70193
:102BE000CF911F910F91FF90EF90DF90CF90BF900A
:102BF000AF909F908F907F906F905F904F900895CF
:102C0000CF93DF9320919E04233021F080E0DF9169
:102C1000CF9108952091FD022111F8CFEC0164E2DB
:102C20000E947B0E90E09195819591098C349F4F85
:102C30006CF7E881F9810288F389E02D61E0CE012B
:102C4000099581E0E4CFEF92FF920F931F93CF930A
:102C5000DF93EC018091FE02882309F468C0809123
:102C60009E041092FE02833009F0ACC068E2CE01EF
:102C70000E947B0E82FFA6C0E881F9810288F38959
:102C8000E02D61E0CE010995E881F9810488F5899C
:102C9000E02DCE01099580E00E94E80D80E00E94C1
:102CA000E80D082F182F833408F012E41093FD026A
:102CB00080E00E94E80DE82E80E00E94E80DF82EEA
:102CC00080E00E94E80D282F30E0A90166E0440F63
:102CD000551F6A95E1F7442753704E295093FC0223
:102CE0004093FB02322F2227222733702F29309363
:102CF000FA022093F9029F81E881F981911107C0BE
:102D00002D813E814217530711F0452B11F40330FA
:102D100040F51092FD020688F789E02DCE01099555
:102D2000E881F981048CF58DE02DCE010995809123
:102D30009E04833009F055C08091FD02882309F478
:102D400057C0E881F9810288F389E02D61E0CE0166
:102D5000099581E0DF91CF911F910F91FF90EF9046
:102D6000089513501093F802982F90789093F702DB
:102D70000885008CF18DE02D682FCE01099510E0BB
:102D80008091F802181728F480E00E94E80D1F5F78
:102D9000F7CFE881F9810688F789E02DCE01099502
:102DA000E881F9810288F389E02D63E0CE0109957D
:102DB0006885061739F0E881F9810484F585E02DEE
:102DC000CE01099564E2CE010E947B0E90E09195C0
:102DD00081959109959587959093F6028093F502D8
:102DE000A6CFE881F981048CF58DE02DCE010995FF
:102DF00080E0B0CF8091DB048F738093D8049091F2
:102E00000A0320910B03211182C0992309F483C086
:102E10008F5F8093D8048EEB90E00E944C09609104
:102E2000DA0470E090E080E04AE00E94961186EBC0
:102E300090E00E944C096091D80470E090E080E03E
:102E40004AE00E9496118EEA90E00E944C0980911F
:102E5000D9048B3209F44CC0863509F44CC08B354B
:102E600009F04CC083E993E00E94DC1189EA90E00C
:102E70000E947A1187E990E00E944C098091DE045B
:102E800090E00E940A1287E890E00E944C0980912D
:102E9000DF049091E0040E94DC1187E891E00E9439
:102EA000861184E790E00E944C098091E10490E053
:102EB0000E940A128091DC0480FF23C085E691E025
:102EC0000E9486118091DC0481FF1EC082E791E0A0
:102ED0000E94861188E690E00E944C098091DD04F2
:102EE0008251990B0E94DC118BE891E00C948611C1
:102EF00081EB91E0B9CF84E693E0B6CF90E080E03B
:102F0000B3CF8BE691E0DCCF8CE791E0E1CF91117C
:102F100082CF8E5F7ECF8D5F7CCF85ED8093BC00AE
:102F20008091C1039091C203A091C303B091C403E7
:102F30000796A11DB11D23E0B695A7959795879596
:102F40002A95D1F72091BC0024FD03C01092BF0345
:102F500008954091C1035091C2036091C3037091E1
:102F6000C403452B462B472B69F30097A105B105F8
:102F700041F02AE22A95F1F700C00197A109B109B1
:102F8000E1CF8091C0030C94A005FF920F931F9393
:102F9000CF93DF93EC01F62E08811981C8010E94BE
:102FA0008627F81621F06F2DC8010E948E27CE01CA
:102FB000DF91CF911F910F91FF900895CF92DF92F3
:102FC000EF92FF920F931F93CF93DF9300D0CDB773
:102FD000DEB76C017C0103E010E01A830983F7017E
:102FE00061917F01CE0101960E94C5170F5F1F4FAF
:102FF0000730110591F7C6010F900F90DF91CF9127
:103000001F910F91FF90EF90DF90CF9008951F9246
:103010000F920FB60F9211242F933F934F935F930C
:103020006F937F938F939F93AF93BF93EF93FF9390
:103030008091B900887F803609F44AC0F0F5883263
:1030400009F4A7C018F5803109F49BC0B8F48823AF
:1030500009F4F9C0883009F494C0FF91EF91BF9151
:10306000AF919F918F917F916F915F914F913F9120
:103070002F910F900FBE0F901F901895883109F473
:1030800088C0803251F78093BD0314C0803409F4A6
:103090009DC040F48033B9F38833F9F68093BD03C3
:1030A00085ECB0C0803509F485C0883509F496C038
:1030B000883499F60E948D17D0CF883909F48CC0D6
:1030C00038F5883729F050F4883611F0803729F622
:1030D00083E08093BF031092760357C0883809F4C9
:1030E0007BC0803919F0803809F0B7CF8091760322
:1030F000803208F071C0E091760381E08E0F8093FA
:1031000076038091BB00F0E0EA5AFC4F80833DC01B
:10311000803B39F0E0F4803A09F479C0883A09F04C
:103120009CCF84E08093BF0310925303109252030C
:10313000E0915003F0915103099580915203811160
:103140000FC081E0809352031092300309C0803C8D
:1031500009F4A6CF883C09F4A3CF883B09F07DCFC2
:10316000E091530381E08E0F80935303F0E0E05D24
:10317000FC4F80818093BB00909153038091520358
:1031800029C080919A038093BB0085EC8093BC009A
:1031900064CF9091BC038091BB03981758F5E091E0
:1031A000BC0381E08E0F8093BC03F0E0E556FC4F3A
:1031B0008081E9CFE091BC0381E08E0F8093BC0356
:1031C0008091BB00F0E0E556FC4F80839091BC03FA
:1031D0008091BB039817C8F285E8D8CFE091BC0373
:1031E00081E08E0F8093BC038091BB00F0E0E55638
:1031F000FC4F80838091BE0381115CCF81E080937E
:10320000990384EA8093BC001092BF0326CF85EC1B
:103210008093BC001092BF0380917603803230F41B
:10322000E0917603F0E0EA5AFC4F10826091760359
:1032300070E0E0915403F091550386E593E0099521
:10324000109276030ACF1092BD0334CF1F920F92D3
:103250000FB60F9211242F933F938F939F93AF93A9
:10326000BF938091270390912803A0912903B091E7
:103270002A033091260323E0230F2D3758F50196BA
:10328000A11DB11D2093260380932703909328034B
:10329000A0932903B0932A0380912B0390912C03D0
:1032A000A0912D03B0912E030196A11DB11D809315
:1032B0002B0390932C03A0932D03B0932E03BF9167
:1032C000AF919F918F913F912F910F900FBE0F90D3
:1032D0001F90189526E8230F0296A11DB11DD2CF8D
:1032E0001F920F920FB60F9211242F933F934F937B
:1032F0005F936F937F938F939F93AF93BF93EF935E
:10330000FF93E0910601F09107010995FF91EF917C
:10331000BF91AF919F918F917F916F915F914F91ED
:103320003F912F910F900FBE0F901F9018951F92F5
:103330000F920FB60F9211242F933F934F935F93E9
:103340006F937F938F939F93AF93BF93EF93FF936D
:10335000E0910401F09105010995FF91EF91BF9172
:10336000AF919F918F917F916F915F914F913F911D
:103370002F910F900FBE0F901F9018951F920F92D4
:103380000FB60F9211242F933F934F935F936F9338
:103390007F938F939F93AF93BF93EF93FF9385EFAB
:1033A00093E00E94DD08FF91EF91BF91AF919F9153
:1033B0008F917F916F915F914F913F912F910F90DE
:1033C0000FBE0F901F9018951F920F920FB60F927D
:1033D00011242F938F939F93EF93FF93E091050414
:1033E000F09106048081E0910B04F0910C0482FDC1
:1033F0001BC0908180910E048F5F8F7320910F040A
:10340000821741F0E0910E04F0E0EB50FC4F958FF5
:1034100080930E04FF91EF919F918F912F910F90C8
:103420000FBE0F901F9018958081F4CF1F920F92BE
:103430000FB60F9211248F93809100038F5F8093BA
:1034400000038F910F900FBE0F901F901895EF9271
:10345000FF920F931F93CF93DF9300D0CDB7DEB7CA
:103460001092EC031092EB0388EE93E0A0E0B0E042
:103470008093ED039093EE03A093EF03B093F003DA
:1034800022E131E03093EA032093E9031092F8033C
:103490001092F7038093F9039093FA03A093FB0330
:1034A000B093FC0384E291E09093F6038093F503DC
:1034B00085EC90E0909302048093010484EC90E00A
:1034C000909304048093030480EC90E090930604AE
:1034D0008093050481EC90E09093080480930704A6
:1034E00082EC90E090930A048093090486EC90E0CB
:1034F00090930C0480930B0410920E0410920F040E
:1035000010921004109211048EEF90E090939904A1
:103510008093980485E190E09093950480939404BF
:1035200084E290E090939304809392048BE091E086
:1035300090939B0480939A048FEF93E090939D0463
:1035400080939C0410929704109296040BE011E073
:10355000C8010E948627780195E1E90EF11C8F3F92
:1035600069F110939704009396048FEFE81683E0B7
:10357000F80654F5C7010E9486278F3FD9F00BE06B
:1035800011E080919C0490919D0408171907E4F4C0
:103590001A8309836FEFCE0101960E94C51710921E
:1035A0009704109296048091940490919504080FCA
:1035B000191FE7CF95E1E90EF11CD7CF87018FEFF7
:1035C000E81683E0F80621F68BE28093D90482EDB9
:1035D0008093DA0487E18093DB0411E01093DC042C
:1035E00099E19093DD041093DE0422E330E0309300
:1035F000E0042093DF041093E1048093D80486E371
:1036000091E09093C7048093C6041092D304109263
:10361000D20480E58093D6041092D70486EC94E01F
:103620009093A00480939F048AE08093C80482E072
:103630008093C90410939E041092CD048FE180936F
:10364000CE041092CF041092D1041092D00460E006
:1036500081E10E94C105ECE4F8E0E491E093B80454
:10366000E8E3F8E0E491F0E0EE0FFF1FE35EF74FD0
:10367000859194919093BA048093B9041092C304F5
:103680001092C5041092C4041092C2041092C10496
:103690001092C0041092BF041092BE041092BD0498
:1036A0001092BC041092BB041092B7041092B6049E
:1036B0001092A20488EB94E09093AB048093AA0448
:1036C0001092A8041092A9041092A10489E080939A
:1036D000A4041093A5041093A6041093A7040F90BC
:1036E0000F90DF91CF911F910F91FF90EF90089570
:1036F000CF93DF93CDB7DEB7E8970FB6F894DEBF70
:103700000FBECDBF789484B5826084BD84B58160DE
:1037100084BD85B5826085BD85B5816085BD80919C
:103720006E00816080936E00109281008091810014
:10373000826080938100809181008160809381000C
:10374000809180008160809380008091B1008460CE
:103750008093B1008091B00081608093B00080912F
:103760007A00846080937A0080917A0082608093EE
:103770007A0080917A00816080937A0080917A004B
:10378000806880937A001092C10061E089E00E9415
:10379000C10561E089E00E94540562E086E00E9474
:1037A000C10562E080E10E94C10562E08EE00E94F6
:1037B000C10562E084E10E94C10562E085E10E94EA
:1037C000C10562E084E00E94C10562E087E00E94DA
:1037D000C10562E088E00E94C10587E00E942B05D8
:1037E00021E0892B09F420E020930B0388E00E945C
:1037F0002B0521E0892B09F420E020930A03E091B6
:103800000504F091060482E08083E0910104F091C8
:1038100002041082E0910304F091040480E18083AB
:1038200010920D04E0910904F0910A0486E080836F
:10383000E0910704F0910804808180618083E09129
:103840000704F0910804808188608083E091070478
:10385000F0910804808180688083E0910704F091F2
:10386000080480818F7D808381EA91E00E94861127
:1038700087EB91E00E94DA1184EC91E00E948611BE
:1038800064E670E080E090E00E94360786E09FEFFB
:103890000E943611882329F1CE0101960E941A1147
:1038A000E980FA80F7FC1DC0470123E0820E911CDD
:1038B00099EDC92E94E0D92E07E010E0C8010E94CE
:1038C0008627D6018D936D010F5F1F4F08151905CF
:1038D000A8F3B4E0EB16F10421F085EE90E00E942D
:1038E0007A118091DC04882309F43DC00E94FA1605
:1038F0008AEC91E00E94861184EE91E00E9486118C
:103900004091DA040091D80410E08091D90490919C
:10391000C904923009F49DC1933009F47DC08FEF42
:103920008093CA0480EF91E00E94F00F6091DD0463
:1039300086EC94E00E94420E81E092E00E948611A3
:103940000AE010E01093100300930F0364E670E0A8
:1039500080E090E00E9436070150110998F710921C
:10396000100310920F0361E085E00E94C10560E042
:1039700081E00E94C10562E083E00E94C1058DE004
:1039800092E00E94861182E10E942B05019709F0C6
:10399000BAC110927803109277031092C603109266
:1039A000E8030E9482058AE794E090935103809394
:1039B00050038BE794E0909355038093540311E0F8
:1039C0001093C50380E48093E70381E00E94220600
:1039D000882309F4A3C162E070E082E091E00E94D4
:1039E000120768E070E0CE0101960E945B1262E06F
:1039F00070E080E091E00E94120766E070E0CE0186
:103A000001960E945B12098110E00115110509F071
:103A100088C110920C037DC191E09093CA04FE010D
:103A200033969CE2DF011D929A95E9F791E0998324
:103A300024E02A8332E03B8393E09D833E832F83FF
:103A400020E4288735E039879A8796E09B8793E3BF
:103A50009C8797E09D8738E03F8739E0398B39E1D3
:103A60003B8B32E43C8B55E25D8B2E8B26E22F8B19
:103A7000988F98E2998F20E12A8F99E29B8F9CED95
:103A80009C8F9EE29D8F98E89E8F9FE29F8F9DE284
:103A900098A390E399A357E35BA350E95CA358E391
:103AA0005DA33EA33CE33FA33FE838A73DE339A72E
:103AB0002AA72FE62BA79CA79FEF9DA79EE48F31F7
:103AC00039F09CE68B3221F099ED863509F094EEC1
:103AD0009E878F3109F4C2C08B3209F4BDC0863590
:103AE00009F0BCC080E0888B4AA361E08091C804E3
:103AF0000E94540561E08091C8040E94C105809134
:103B0000D0049091D104892B31F482E093E090931A
:103B1000D1048093D004FFB6F89480910103811101
:103B200027C0E1E3F8E08491E5E4F8E09491E82F20
:103B3000F0E0EE0FFF1FE956FD4FA591B491EC9117
:103B4000E92321F461E08AE00E94540561E08AE003
:103B50000E94C1058CB580618CBD8CB580648CBD24
:103B600061E08DE00E94C10561E08BE00E94C1052B
:103B7000809101038F5F80930103FFBE80E58093F6
:103B8000D60481E08093D7040E9469076B017C0111
:103B90004AEA6FE286EC94E00E94EF0D6FE286EC59
:103BA00094E00E947B0E8A3A59F00E9469076C19D2
:103BB0007D098E099F09623371058105910540F3E6
:103BC0000E9469076C197D098E099F09623371058E
:103BD0008105910508F0A6CE0E9469076B017C0162
:103BE00045E56FE286EC94E00E94EF0D6FE286EC13
:103BF00094E00E947B0E853559F00E9469076C198C
:103C00007D098E099F09623371058105910540F395
:103C10000E9469076C197D098E099F09623371053D
:103C20008105910508F07ECEF12CEF2DF0E0EE0F2E
:103C3000FF1F81E090E08C0F9D1FE80FF91F60814E
:103C40006F3F71F0418186EC94E00E94EF0DF39498
:103C5000ECCF1092CA04E3CE80E445CF80EC43CF92
:103C600090E080E00E94F00F6091CF0486EC94E039
:103C70000E942D0E61E086EC94E00E94870F0E9466
:103C800069076B017C0167E286EC94E00E947B0E81
:103C900087FD0BC00E9469076C197D098E099F0979
:103CA000623371058105910570F30E9469076C19F3
:103CB0007D098E099F09623371058105910508F020
:103CC00031CE8091CA04823090F4E82FF0E0EE0FFC
:103CD000FF1FEC5FFE4F26E737E031832083813002
:103CE00059F080916900836080936900E89A10938D
:103CF000CC040093CB0416CE809169008C60809335
:103D00006900E99AF4CF83E10E942B05019709F439
:103D100040CE8AE192E00E9486114BC010930303CB
:103D20005ACE81E080930C030E94421329833A8388
:103D30004B835C836D837E8387E292E00E94DA117D
:103D4000C8010E940A1264E670E080E090E00E94E0
:103D500036078CE392E00E94DA1169817A81072E9E
:103D6000000C880B990B0E94692620E030E048EC9B
:103D700052E40E94732842E00E94281582E492E0F7
:103D80000E94DA116D817E8190E080E00E946726BA
:103D900020E030E048EC52E40E94732842E00E94A8
:103DA00028150E94761164E670E080E090E00E94A1
:103DB000360761E085E00E94540562E370E080E030
:103DC00090E00E943607E091AA04F091AB041386BC
:103DD0001586148612861186108617821682158221
:103DE000148213821092A8041092A90411E0BE015B
:103DF0006F5F7F4F8091AA049091AB040E94B21331
:103E0000882309F459C067E0CE0101960E94A309F6
:103E100098858913ECCF8091A8048F5F8093A804C4
:103E20008981883231F008F041C0803111F082324E
:103E3000F1F68091A9048F5F8093A9048091A10479
:103E4000811128C08091AA049091AB040E94600A5D
:103E5000BE016F5F7F4F8091AA049091AB040E94D6
:103E6000410A40E064EB8091AA049091AB040E9467
:103E70000D0A8091AA049091AB040E94BA09082F00
:103E80008091AA049091AB040E94600A011102C0C3
:103E90001093A104CE0101960E94C90B9091A40435
:103EA000981708F0A4CF8093A404A1CF8B3309F214
:103EB000823409F09CCFBDCF1092A5042091E2047A
:103EC000E9EDF4E084E090E0211128C08091A8049D
:103ED00090E090930E0380930D03059734F084E0F7
:103EE00090E090930E0380930D0310E0612F70E03B
:103EF00080910D0390910E0368177907F4F4E3E0C5
:103F0000660F771FEA95E1F76E517B4F88EB94E0DF
:103F10000E94B213882389F01F5FE8CF482F392F02
:103F2000009799F151A1019738975832B9F740930A
:103F30000D0330930E032832C1F600910D0310914A
:103F40000E030115110509F40CC18091E1048823C9
:103F500009F47BC061E085E00E94540582E390E0B3
:103F60000E94F41052EEE52E54E0F52ED12CC12C17
:103F7000C016D1067CF4C7010E943214AFEFCA1AF2
:103F8000DA0AB8E0EB0EF11CF3CF10920E03109298
:103F90000D03D1CF0E94020C2CAB3DAB4EAB5FABFF
:103FA00068AF87E791E00E94F41082EE94E00E94EF
:103FB0000A0B6B017C0120E030E04AEF52E40E94E2
:103FC000622687FF18C020E030E040E252ECC701D3
:103FD000B6010E941B29181674F420E030E040E27C
:103FE00051E4C701B6010E94C8260E94E5287093DB
:103FF0001203609311038AEE94E00E940A0B6B0196
:104000007C0120E030E04AEF52E40E94622687FF04
:1040100018C020E030E040E252ECC701B6010E9437
:104020001B29181674F420E030E040E251E4C70187
:10403000B6010E94C8260E94E5287093140360937D
:10404000130360E085E00E9454058DE291E00E9438
:104050004C09C8010E94DC1184EA92E00E94DA1146
:1040600084E090E00E940A1280910D0390910E036B
:10407000892B09F444C089E191E00E947A1142EE53
:10408000E42E44E0F42ED12CC12C80910D039091AC
:104090000E03C816D9069CF54701E8E08E0E911C68
:1040A0008701D8018D918D01803120F487E191E065
:1040B0000E944C09F8013197608170E090E080E047
:1040C00040E10E94961185E191E00E944C0908159B
:1040D000190539F7F7018681833021F48AEF90E0E2
:1040E0000E944C090E94761165E070E080E090E04B
:1040F0000E943607FFEFCF1ADF0A7801C6CF65E0CE
:1041000070E080E090E00E9436078DE492E00E942B
:10411000DA1190E080E00E94DC1182EA92E00E94D5
:10412000DA1180911103909112030E94DC1184E551
:1041300092E00E9486118DE492E00E94DA1181E003
:1041400090E00E94DC1182EA92E00E94DA118091F4
:104150001303909114030E94DC1184E592E00E9405
:10416000861180ED97E0A0E0B0E08093F903909392
:10417000FA03A093FB03B093FC0386E592E00E9450
:1041800086118091DC0481FF58C082E791E00E9493
:1041900086110E946907609306037093070380935A
:1041A00008039093090311E00E946907AB01BC0169
:1041B000009105038091060390910703A0910803E5
:1041C000B09109038056904FAF4FBF4F4817590722
:1041D0006A077B07E8F585EF93E00E94BD08059725
:1041E0001CF30111E1CF65E070E0CE0101960E9461
:1041F000D407059759F589818B3241F58A818B3235
:1042000029F58C818D3011F58D818A30F9F48B81FF
:104210008B32B1F41093050382E08093040388236A
:1042200019F28DE792E00E947A11809104038230A6
:1042300009F0BACF0E946C09B7CF80E991E0A7CF0F
:10424000833721F41093050381E0E7CF80E0E5CFC9
:1042500060900503662009F4E2C285EF93E00E94B6
:10426000BD08892BA9F385EF93E00E94C0078E3625
:10427000E9F06CF5873609F484C08CF48F3309F4C7
:10428000C9C2823609F454C085EF93E00E94BD088C
:10429000892BF1F285EF93E00E94C007F5CF8C36B1
:1042A00009F482C00CF083C0893671F70E9461085E
:1042B000662309F440C1603408F06FE36093DB04C7
:1042C0008EE592E00E944C096091DB0464C0843763
:1042D00009F40FC2CCF4823709F42FC10CF055C198
:1042E000803791F60E9461086F716093DD0488E861
:1042F00092E00E94DA118091DD048251990B0E94B4
:10430000DC118BE891E014C1873709F455C2883776
:1043100009F468C2863709F0B7CF82E592E00E94BF
:104320004C0984EC91E00E94691188E591E000C19C
:104330000E9461086430B1F06830C1F08BE56930EB
:1043400091F08091D9048B3299F08635A1F08B35AC
:10435000A9F483E993E00E94DC1188E792E00E94CF
:104360007A1192CF8BE28093D904EBCF86E5FBCF15
:1043700081EB91E0F0CF84E693E0EDCF90E080E038
:10438000EACF0E9461086093DA0481E792E00E941C
:104390004C096091DA0470E090E080E04AE00E940D
:1043A00096110E94761170CF0E94FA166DCF0E946E
:1043B00061088B010E942F08FC0197FD87C08D3298
:1043C000910559F0C0970A9740F0EE32F10529F0B7
:1043D00085EF93E00E94C007EDCF312C712C812C2A
:1043E000912C30E8A32E3FE3B32EC12CD12C7601C3
:1043F000E130F10549F1ED32F105C9F1EE32F10597
:10440000C1F1CF01C0970A97F8F4AAE0B0E0A70184
:1044100096010E949C276F01FF0FEE08FF08C60E51
:10442000D71EE81EF91E20E3C21AD108E108F108E0
:10443000332051F02DEC3CEC4CEC5DE3C501B401B4
:104440000E94C8264B015C0185EF93E00E94C007E3
:104450000E942F08FC01C0970A9750F2EE32F10536
:1044600051F4332029F27720E1F0372C0AC0762C62
:10447000EBCF362CE9CFE130F10509F4B9CF772045
:1044800041F0F094E094D094C094C11CD11CE11C84
:10449000F11CC701B6010E9469262B013C013320A3
:1044A00051F0C701B6010E946926A50194010E943E
:1044B000C8262B013C0185EF93E00E94BD08892BA3
:1044C00049F085EF93E00E94C007F5CF412C512CB5
:1044D0003201F1CF0115110589F001301105C1F04C
:1044E00088E692E00E944C09012B01F142E0C301F1
:1044F000B2010E94281584E692E031CF1092DE04CA
:10450000E99885E797E09093070180930601E8CF4B
:1045100081E08093DE04C301B2010E94E52870931C
:10452000E0046093DF040E94C910DACF8EE691E0C8
:104530000E948611A9CE61E0C1CE85E691E00E947D
:104540007A1186E09FEF0E943611882389F0CE0110
:1045500001960E941A1189819A8197FD09C091954F
:10456000819591099A838983CE0101960E94DE1775
:104570008EE391E00E947A1168EC70E080E090E0B8
:104580000E9436070C9400007FCE8DE892E00E94D6
:10459000861186E09FEF0E943611811128C01A8291
:1045A00019826FE4CE0101960E94C51781E090E068
:1045B0009A83898365E4CE0101960E94C517A2E023
:1045C000B0E0BA83A9836DE4CE0101960E94C517BD
:1045D00003E010E01A8309836FEFCE0101960E9479
:1045E000C5170F5F1F4F0115B4E01B0799F7EDE2E8
:1045F000F0E0FA83E98386E09FEF9C838B83CE0112
:1046000001960E94DE1729EDE22E24E0F22E07E04B
:1046100010E0D7016D917D0118AB0FA7CE018F96E9
:104620000E94C5170F5F1F4F0033110591F790E0EF
:1046300080E00E94361181111AC08AE192E00E9446
:104640004C094AE060E074E080E090E00E9496113E
:1046500084EF91E00E947A1160E074E090E080E0E5
:104660000E94161282EF91E00E944C090CC0CE010C
:1046700001960E941A118B819C81019649F481EA6E
:1046800091E00E947A110E94761181E292E067CE59
:1046900084E991E00E944C096B817C8190E080E08C
:1046A0004AE00E94961109811A8117FF03C01195F3
:1046B000019511090450110986E891E00E944C0906
:1046C000C8010E94DC118FE791E00E944C098981AA
:1046D0009A8197FF04C084E791E00E944C090E94F0
:1046E0007611B80187E090E00E94161282E791E00F
:1046F000BBCF0E9461086B01CB01892B59F40E944A
:10470000610821E0672B682B692B09F420E02093D6
:10471000E104BACD6530710508F0B6CD61E070E016
:10472000CE018F960E94D40710E000E061E070E0B7
:10473000CE018F960E94D407892B49F1083038F5B5
:104740008FA5803221F08D3011F08A3051F4E1E0F4
:10475000F0E0EC0FFD1FE00FF11D10830F5F10E084
:10476000E5CF1295107F90ED980F9A3030F09FEBC7
:10477000980F963020F499EC980F190FD7CF9FE936
:10478000980F963010F499EAF7CF90E0F6CFDE015B
:10479000119693E0CC0CDD1C9A95E1F781E090E056
:1047A0002D91F601E80FF91FE752FB4F2083019688
:1047B00089309105A9F768CD0E9461086093DC04F7
:1047C00085E691E060FD02C08BE691E00E948611D3
:1047D0008091DC0481FF03C082E791E0A9CE8CE7E1
:1047E00091E0A6CE84E492E00E947A1185EF93E0F6
:1047F0000E94BD08892B29F085EF93E00E94C00735
:10480000F5CF109205036AE070E080E090E00E942E
:1048100036073ACD0E946C0982E492E0A0CD0E9456
:10482000C91080B7806880BF8091DC0481FD05C01D
:10483000809164008260809364008091640080684D
:104840008093640080916400846080936400809110
:10485000640088608093640080910B03811104C020
:1048600060E087E00E94C10580910A03811104C0C5
:1048700060E088E00E94C10580910C03882321F04C
:1048800060E089E00E94540511E480E0E82E80E0B9
:10489000F82E80912503882341F08091DF049091C8
:1048A000E0040E94B20C1092250380E590E00E9483
:1048B000B20C813099F48091210390912203A09150
:1048C0002303B09124030196A11DB11D8093210300
:1048D00090932203A0932303B09324038091210398
:1048E00090912203A0912303B0912403823B924034
:1048F000A105B10570F480911D0390911E03A09154
:104900001F03B091200384369105A105B10508F479
:10491000CDC18091DE04882331F1F89440911D03CC
:1049200050911E0360911F03709120038091190321
:1049300090911A03A0911B03B0911C03840F951F43
:10494000A61FB71F8093190390931A03A0931B030C
:10495000B0931C0310921D0310921E0310921F03AC
:10496000109220037894C0900D03D0900E03C114D0
:10497000D10409F47BC08091E104882309F476C056
:1049800061E085E00E94540582E390E00E94F4100B
:1049900089ED94E0712C612C4C01F8E08F0E911C94
:1049A0006C147D0444F409960E9432142FEF621AAD
:1049B000720AC401F1CF0E94020C2FA738AB49AB99
:1049C0005AAB6BAB87E791E00E94F41082EE94E063
:1049D0000E940A0B2B013C0120E030E04AEF52E438
:1049E0000E94622687FF18C020E030E040E252ECCF
:1049F000C301B2010E941B29181674F420E030E0B4
:104A000040E251E4C301B2010E94C8260E94E52899
:104A100070931203609311038AEE94E00E940A0BD4
:104A20002B013C0120E030E04AEF52E40E94622674
:104A300087FF18C020E030E040E252ECC301B20131
:104A40000E941B29181674F420E030E040E251E483
:104A5000C301B2010E94C8260E94E5287093140386
:104A60006093130360E085E00E94540510937C007E
:104A700080917A00806480937A0080917A0086FD2C
:104A8000FCCF6091780070917900072E000C880BA4
:104A9000990B0E94692626E234EE43E05DE30E9412
:104AA000C8260E94E528709318036093170380912D
:104AB0000C038823C1F1809164008F778093640098
:104AC0000E94421329833A834B835C836D837E83E8
:104AD00069817A81072E000C880B990B0E94692648
:104AE0002DEC3CEC4CEC5DE30E94C8260E94E528CE
:104AF0007093100360930F036D817E8190E080E0DE
:104B00000E9467262DEC3CEC4CEC5DE30E94C8262D
:104B10000E94E5287093160360931503809164004A
:104B20008068809364008091DC0480FF2EC08091B7
:104B300064008B7F809364008EE190E00E94F4100B
:104B40004091D804842F90E09093CC048093CB04C0
:104B500069E386EC94E00E94EF0D00E02EE04FE068
:104B600053E065E070E086EC94E00E94340F60E072
:104B700086EC94E00E94870F84E690E00E94F41097
:104B8000809164008460809364008091DC0481FFE4
:104B900083C08CE392E00E94DA1180910F03909120
:104BA00010030E94DC1184E592E00E94DA118091EA
:104BB0000D0390910E03892B61F18DE492E00E9428
:104BC000DA1190E080E00E94DC1182EA92E00E941B
:104BD000DA1180911103909112030E94DC1184E597
:104BE00092E00E94DA118DE492E00E94DA1181E0F5
:104BF00090E00E94DC1182EA92E00E94DA1180913A
:104C00001303909114030E94DC1184E592E00E944A
:104C1000DA1180910C03882371F083E492E00E9402
:104C2000DA1180911503909116030E94DC1184E53E
:104C300092E00E94DA1187E992E00E94DA118091F5
:104C40001703909118030E94DC1180911903909131
:104C50001A03A0911B03B0911C03892B8A2B8B2B69
:104C600099F084E592E00E94DA118DE992E00E94C9
:104C7000DA116091190370911A0380911B039091CE
:104C80001C034AE00E9496110E94761165E070E0D4
:104C900080E090E00E9436070E946907109221038D
:104CA000109222031092230310922403E114F104C2
:104CB00009F4EFCD0E94C908882309F4EACD0E94C7
:104CC0000000E7CD0E94A42608F481E00895E8944E
:104CD00009C097FB3EF490958095709561957F4F44
:104CE0008F4F9F4F9923A9F0F92F96E9BB279395F2
:104CF000F695879577956795B795F111F8CFFAF402
:104D0000BB0F11F460FF1BC06F5F7F4F8F4F9F4F32
:104D100016C0882311F096E911C0772321F09EE890
:104D2000872F762F05C0662371F096E8862F70E0F6
:104D300060E02AF09A95660F771F881FDAF7880FD0
:104D40009695879597F90895990F0008550FAA0B26
:104D5000E0E8FEEF16161706E807F907C0F012168E
:104D60001306E407F50798F0621B730B840B950B91
:104D700039F40A2661F0232B242B252B21F40895E6
:104D80000A2609F4A140A6958FEF811D811D089583
:104D90000E94DB260C944C270E943E2738F00E948C
:104DA000452720F0952311F00C9435270C943B27D0
:104DB00011240C9480270E945D2770F3959FC1F306
:104DC000950F50E0551F629FF001729FBB27F00DB9
:104DD000B11D639FAA27F00DB11DAA1F649F66270E
:104DE000B00DA11D661F829F2227B00DA11D621F5D
:104DF000739FB00DA11D621F839FA00D611D221F17
:104E0000749F3327A00D611D231F849F600D211DFA
:104E1000822F762F6A2F11249F5750409AF0F1F07D
:104E200088234AF0EE0FFF1FBB1F661F771F881FE6
:104E300091505040A9F79E3F510580F00C943527C2
:104E40000C9480275F3FE4F3983ED4F386957795E2
:104E50006795B795F795E7959F5FC1F7FE2B880F8C
:104E6000911D9695879597F9089597F99F6780E822
:104E700070E060E008959FEF80EC089500240A94AC
:104E80001616170618060906089500240A94121625
:104E90001306140605060895092E0394000C11F458
:104EA000882352F0BB0F40F4BF2B11F460FF04C005
:104EB0006F5F7F4F8F4F9F4F089557FD9058440F5E
:104EC000551F59F05F3F71F04795880F97FB991F69
:104ED00061F09F3F79F08795089512161306140626
:104EE000551FF2CF4695F1DF08C0161617061806B3
:104EF000991FF1CF86957105610508940895E8948E
:104F0000BB2766277727CB0197F90895F999FECF3C
:104F100092BD81BDF89A992780B50895262FF999F9
:104F2000FECF1FBA92BD81BD20BD0FB6F894FA9A8C
:104F3000F99A0FBE019608950E94A727A59F900D8C
:104F4000B49F900DA49F800D911D11240895A29FE0
:104F5000B001B39FC001A39F700D811D1124911D4D
:104F6000B29F700D811D1124911D089597FB072E8E
:104F700016F4009407D077FD09D00E94EC2707FCB7
:104F800005D03EF4909581959F4F08957095619559
:104F90007F4F0895A1E21A2EAA1BBB1BFD010DC075
:104FA000AA1FBB1FEE1FFF1FA217B307E407F507D9
:104FB00020F0A21BB30BE40BF50B661F771F881FB5
:104FC000991F1A9469F760957095809590959B014B
:104FD000AC01BD01CF010895AA1BBB1B51E107C065
:104FE000AA1FBB1FA617B70710F0A61BB70B881F79
:104FF000991F5A95A9F780959095BC01CD01089508
:10500000EE0FFF1F0590F491E02D09945058BB2737
:10501000AA270E941E280C944C270E943E2738F095
:105020000E94452720F039F49F3F19F426F40C9490
:105030003B270EF4E095E7FB0C943527E92F0E94FF
:105040005D2758F3BA17620773078407950720F0A6
:1050500079F4A6F50C947F270EF4E0950B2EBA2F69
:10506000A02D0B01B90190010C01CA01A00111246E
:10507000FF27591B99F0593F50F4503E68F11A161A
:10508000F040A22F232F342F4427585FF3CF4695AB
:1050900037952795A795F0405395C9F77EF41F16CD
:1050A000BA0B620B730B840BBAF09150A1F0FF0F97
:1050B000BB1F661F771F881FC2F70EC0BA0F621F83
:1050C000731F841F48F4879577956795B795F79573
:1050D0009E3F08F0B0CF9395880F08F09927EE0F08
:1050E0009795879508950E9487280C944C270E94D5
:1050F000452758F00E943E2740F029F45F3F29F0F1
:105100000C94352751110C9480270C943B270E9456
:105110005D2768F39923B1F3552391F3951B550B44
:10512000BB27AA2762177307840738F09F5F5F4F7A
:10513000220F331F441FAA1FA9F335D00E2E3AF0B9
:10514000E0E832D091505040E695001CCAF72BD0D1
:10515000FE2F29D0660F771F881FBB1F2617370722
:105160004807AB07B0E809F0BB0B802DBF01FF2754
:1051700093585F4F3AF09E3F510578F00C943527D5
:105180000C9480275F3FE4F3983ED4F3869577959F
:105190006795B795F7959F5FC9F7880F911D96950D
:1051A000879597F90895E1E0660F771F881FBB1F69
:1051B000621773078407BA0720F0621B730B840B16
:1051C000BA0BEE1F88F7E09508950E94EC286894CA
:1051D000B1110C94802708950E94652788F09F578D
:1051E00098F0B92F9927B751B0F0E1F0660F771F0B
:1051F000881F991F1AF0BA95C9F714C0B13091F001
:105200000E947F27B1E008950C947F27672F782FA5
:105210008827B85F39F0B93FCCF3869577956795C5
:10522000B395D9F73EF490958095709561957F4F31
:105230008F4F9F4F08950E94A42608F48FEF089582
:0E5240000E94A426880B990B0895F894FFCFC6
:10524E00FCC9FA0F750775075E00BC0077010000F8
:10525E000000D304A604220D7C049F048C047D045C
:10526E0000000000FF088407B1078309BD08C007CE
:10527E002108000000000016340F400D2316CC0E3E
:10528E002D0E420EBA0DE40D870F330D250DE70DD1
:10529E002710990E0E0E0D0A006E616E00696E6675
:1052AE00006F7666005246206F6E005246206F6683
:1052BE00660053657269616C206F6E00536572698A
:1052CE00616C206F666600206D73002064426D0075
:1052DE0053657269616C207072696E74206F6666B8
:1052EE00004F70656E456E657267794D6F6E6974AD
:1052FE006F722E6F726700656D6F6E544820465741
:10530E003A205600342E312E3700526164696F46B2
:10531E006F726D61743A204C6F77506F7765724C77
:10532E0061627300496E69742052464D2E2E2E0016
:10533E0038397478626534703861696B356B7433E3
:10534E000052464D205374617274656400496E7448
:10535E00205349373032312E2E00534937303231F7
:10536E00204572726F7200534937303231205374B8
:10537E0061727465642C2049443A200074656D7026
:10538E003A002C68756D69646974793A0074656DBC
:10539E00706578002C00272B2B2B27207468656EE8
:1053AE00205B456E7465725D20666F7220636F6E52
:1053BE00666967206D6F64652C2077616974696E0C
:1053CE00672034732E2E2E0070203D200053617600
:1053DE00696E672E2E2E00626174743A0070756CC1
:0A53EE0073653A00206F662000008E
:00000001FF
